:100000000C946E000C9496000C9496000C94960040
:100010000C9496000C9496000C9496000C94960008
:100020000C9496000C9496000C9496000C949600F8
:100030000C9496000C9496000C9496000C949600E8
:100040000C940F030C9496000C94D5020C949A0215
:100050000C9496000C9496000C9496000C949600C8
:100060000C9496000C9496008A048C0490049304DB
:10007000960499049C049F04A204A504A804AB045C
:1000800000000000230026002900000000070002F5
:100090000100000304060000000000000000000052
:1000A0000000250028002B0000000000240027008D
:1000B0002A000404040404040404020202020202EA
:1000C000030303030303010204081020408001021C
:1000D00004081020010204081020590311241FBE37
:1000E000CFEFD8E0DEBFCDBF11E0A0E0B1E0EAE3A2
:1000F000FBE002C005900D92A031B107D9F721E0D5
:10010000A0E1B1E001C01D92A13EB207E1F710E00D
:10011000CEE6D0E004C02197FE010E949505CD36C1
:10012000D107C9F70E9494030C9445050C94000074
:10013000CF93DF9390E0FC01EA53FF4F2491FC0141
:10014000EE54FF4F84918823C1F090E0880F991FEF
:10015000FC01E855FF4FC591D491FC01E256FF4FD9
:10016000A591B4919FB7F8948881E22FE0958E23F2
:1001700088838C91E823EC939FBFDF91CF91089502
:100180000F931F93CF93DF93FC01A685B7858D0155
:10019000005C1F4FE8018881998101968F73992730
:1001A000AD014E5B5F4FEA0128813981281739077D
:1001B000D1F3E80128813981A20FB31F6C93A68582
:1001C000B785A05CBF4F11969C938E93A689B78983
:1001D0002C9181E090E0078C02C0880F991F0A944F
:1001E000E2F7822B8C9381E081A30488F589E02DCE
:1001F00080818064808381E090E0DF91CF911F91C6
:100200000F910895682F8FEB91E00C94C000FC01D2
:1002100081A1882329F0A489B5898C9186FFFBCF21
:1002200011A20895FC01A485B585FD01E05CFF4F96
:10023000208131813296808191812817390779F0A8
:1002400080819181A80FB91F8C91208131812F5F0E
:100250003F4F2F7333273183208390E008958FEF32
:100260009FEF0895DC011C96ED91FC911D97DF0135
:10027000A05CBF4F2D913C91119712968D919C914E
:1002800011972817390739F08D919C91E80FF91FC4
:10029000808190E008958FEF9FEF0895FC01248501
:1002A0003585F901E05CFF4F808191813296208194
:1002B0003181821B930B8F73992708958FEB91E007
:1002C0000C944E010895CF92DF92EF92FF920F931C
:1002D0001F93CF93DF936C01EB017B01E40EF51EBE
:1002E00000E010E0CE15DF0561F06991D601ED91D7
:1002F000FC910190F081E02DC6010995080F191FAE
:10030000F1CFC801DF91CF911F910F91FF90EF9036
:10031000DF90CF9008958E3008F08E508770806403
:1003200080937C0080917A00806480937A00809131
:100330007A0086FDFCCF809178002091790090E0D2
:10034000922B089590E0FC01E657FF4F2491FC01A9
:10035000EA53FF4F3491FC01EE54FF4FE491EE233A
:10036000B9F1222339F1233091F038F42130A9F08A
:10037000223001F584B58F7D12C0263091F02730F0
:10038000A1F02430B9F4809180008F7D03C080916A
:1003900080008F77809380000DC084B58F7784BDF7
:1003A00009C08091B0008F7703C08091B0008F7D2D
:1003B0008093B000F0E0EE0FFF1FE058FF4FA591D3
:1003C000B491EC91E32381E090E021F480E0089582
:1003D00080E090E008953FB7F894809115019091E6
:1003E0001601A0911701B091180126B5A89B05C070
:1003F0002F3F19F00196A11DB11D3FBFBA2FA92FA4
:10040000982F8827820F911DA11DB11DBC01CD0120
:1004100042E0660F771F881F991F4A95D1F708950C
:100420008F929F92AF92BF92EF92FF920F931F9382
:10043000CF93DF93CDB7DEB7A1970FB6F894DEBFA9
:100440000FBECDBF162F042F19A2423008F40AE0C8
:100450007E0121E2E20EF11C802E912CA12CB12C08
:10046000612FA50194010E945405029F10191124C7
:1004700081E0E81AF1081A3014F4105D01C0195C2B
:10048000F7011083122F732FCA01232B242B252B46
:1004900039F7E114F10469F001900020E9F7319790
:1004A000AF014E195F09B7018FEB91E00E94630124
:1004B00002C080E090E0A1960FB6F894DEBF0FBEB8
:1004C000CDBFDF91CF911F910F91FF90EF90BF9023
:1004D000AF909F908F900895CF92DF92EF92FF920E
:1004E000CF93DF936C01990FEE08FF08F7FE17C05A
:1004F0008DE20E940201EC0166277727CB016C197F
:100500007D098E099F094AE00E9410028C0F9D1FF1
:10051000DF91CF91FF90EF90DF90CF9008954AE068
:10052000C701B601DF91CF91FF90EF90DF90CF90A0
:100530000C9410021F920F920FB60F9211242F935A
:100540003F938F939F93EF93FF9320917701309187
:1005500078018091790190917A012817390731F457
:100560008091C1008F7D8093C10014C0E09179011A
:10057000F0917A01E95CFE4F2081809179019091A0
:100580007A0101968F73992790937A01809379016C
:100590002093C600FF91EF919F918F913F912F91F2
:1005A0000F900FBE0F901F9018951F920F920FB6CD
:1005B0000F9211242F934F935F938F939F93EF93F9
:1005C000FF938091C00082FD1CC02091C6008091E5
:1005D000BB019091BC014091BD015091BE010196BB
:1005E0008F7399274817590771F0E091BB01F0917B
:1005F000BC01E558FE4F20839093BC018093BB0162
:1006000002C08091C600FF91EF919F918F915F9101
:100610004F912F910F900FBE0F901F9018951F9222
:100620000F920FB60F9211242F933F938F939F93A6
:10063000AF93BF938091110190911201A09113018A
:10064000B09114013091100123E0230F2D3720F4D5
:100650000196A11DB11D05C026E8230F0296A11D1C
:10066000B11D209310018093110190931201A0936A
:100670001301B09314018091150190911601A0917E
:100680001701B09118010196A11DB11D80931501AC
:1006900090931601A0931701B0931801BF91AF91E9
:1006A0009F918F913F912F910F900FBE0F901F90B0
:1006B0001895EFEBF1E01382128288EE93E0A0E050
:1006C000B0E084839583A683B78384E091E091832F
:1006D00080838BE791E09587848787E391E0978714
:1006E000868785EC90E0918B808B84EC90E0938BF7
:1006F000828B80EC90E0958B848B81EC90E0978BE3
:10070000868B82EC90E0918F808F86EC90E0938FC7
:10071000828F84E0848F83E0858F87E0868F85E0F9
:10072000878F81E080A30895789484B5826084BD2A
:1007300084B5816084BD85B5826085BD85B58160E5
:1007400085BD80916E00816080936E001092810063
:10075000809181008260809381008091810081601E
:1007600080938100809180008160809380008091DF
:10077000B10084608093B1008091B000816080936B
:10078000B00080917A00846080937A0080917A0032
:10079000826080937A0080917A00816080937A00F1
:1007A00080917A00806880937A001092C100E09175
:1007B000D301F091D40181E090E09C010090DF0131
:1007C00002C0220F331F0A94E2F72083E091CF0189
:1007D000F091D0011082E091D101F091D2012FEC83
:1007E00020831092E001E091D501F091D601408183
:1007F0009C010090DB0102C0220F331F0A94E2F734
:10080000242B2083E091D501F091D60140819C01F9
:100810000090DC0102C0220F331F0A94E2F7242B60
:100820002083E091D501F091D60140819C01009098
:10083000DD0102C0220F331F0A94E2F7242B20832C
:10084000E091D501F091D60120810090DE0102C037
:10085000880F991F0A94E2F780958223808383E0B2
:100860000E94980084E00E94980085E00E94980011
:1008700086E00E94980087E00E94980053E2352E9F
:100880006AE2462E10E379E3572E08E3E7E3BE2E33
:10089000F6E3AF2EA5E39A2EB4E38B2EC3E37C2EB2
:1008A000DAE06D2E83E00E94A20121E0009709F4B6
:1008B00020E020933601892B09F44FC087E00E9485
:1008C000A201F82E86E00E94A201EC0185E00E94C0
:1008D000A201CC0FDD1F880F991F880F991F8C2B49
:1008E000C82FCF2984E00E94A20143E0880F991FFE
:1008F0004A95E1F7EC2FE82B8E2FEE0F990BAA0B00
:10090000BB0BFC013197EC30F10538F5EC5CFF4F87
:100910000C94950581E301C082E3809335011DC0ED
:10092000709235011AC08092350117C0909235013E
:1009300014C0A092350111C0B09235010EC00093D1
:1009400035010BC05092350108C01093350105C028
:100950004092350102C03092350182E00E948B0145
:10096000181619062CF482E00E948B01EC0107C0D6
:1009700082E00E948B01CC27DD27C81BD90BD093C6
:100980003401C093330180912E01E82FF0E0EE0F87
:10099000FF1FE65EFE4F20813181A901330F660BF8
:1009A000770BC0902F01D0903001E0903101F09092
:1009B0003201C41AD50AE60AF70AD183C083AE0110
:1009C0000D2E000C660B770BC40ED51EE61EF71E0F
:1009D000C0922F01D0923001E0923101F0923201A9
:1009E0008F5F662D0E94480590932E01809119011A
:1009F0008A3018F48F5F809319012091190130E03B
:100A000040E050E0C701B6010E947605CE01821B8E
:100A1000930B97FF03C09195819591090E946C02F9
:100A20008CE20E9402018091360190E00E946C02EB
:100A30008CE20E940201809135010E9402018DE04A
:100A40000E9402018AE00E9402010E94EB01EB0178
:100A500082E3C82ED12CE12CF12C0E94EB016C1BFF
:100A60007D0B683E7340C8F321E0C21AD108E1084B
:100A7000F108C851DC4FC114D104E104F10469F755
:100A8000109335010E945E010DCFF8940C949B05E4
:100A9000991B79E004C0991F961708F0961B881FD0
:100AA0007A95C9F780950895A1E21A2EAA1BBB1B5F
:100AB000FD010DC0AA1FBB1FEE1FFF1FA217B3072A
:100AC000E407F50720F0A21BB30BE40BF50B661F40
:100AD000771F881F991F1A9469F760957095809504
:100AE00090959B01AC01BD01CF010895052E97FBA8
:100AF0001EF400940E948D0557FD07D00E945405F6
:100B000007FC03D04EF40C948D055095409530951C
:100B100021953F4F4F4F5F4F089590958095709569
:100B200061957F4F8F4F9F4F0895EE0FFF1F0590E8
:0A0B3000F491E02D0994F894FFCF32
:100B3A0000000000C00063014E01120132010701EA
:00000001FF
